{
  "_format": "hh-sol-artifact-1",
  "contractName": "FlyconomyAttractions",
  "sourceName": "contracts/FlyconomyAttractions.sol",
  "abi": [
    {
      "inputs": [],
      "stateMutability": "nonpayable",
      "type": "constructor"
    },
    {
      "anonymous": false,
      "inputs": [
        {
          "indexed": true,
          "internalType": "address",
          "name": "owner",
          "type": "address"
        },
        {
          "indexed": true,
          "internalType": "address",
          "name": "approved",
          "type": "address"
        },
        {
          "indexed": true,
          "internalType": "uint256",
          "name": "tokenId",
          "type": "uint256"
        }
      ],
      "name": "Approval",
      "type": "event"
    },
    {
      "anonymous": false,
      "inputs": [
        {
          "indexed": true,
          "internalType": "address",
          "name": "owner",
          "type": "address"
        },
        {
          "indexed": true,
          "internalType": "address",
          "name": "operator",
          "type": "address"
        },
        {
          "indexed": false,
          "internalType": "bool",
          "name": "approved",
          "type": "bool"
        }
      ],
      "name": "ApprovalForAll",
      "type": "event"
    },
    {
      "anonymous": false,
      "inputs": [
        {
          "indexed": true,
          "internalType": "address",
          "name": "previousOwner",
          "type": "address"
        },
        {
          "indexed": true,
          "internalType": "address",
          "name": "newOwner",
          "type": "address"
        }
      ],
      "name": "OwnershipTransferred",
      "type": "event"
    },
    {
      "anonymous": false,
      "inputs": [
        {
          "indexed": true,
          "internalType": "address",
          "name": "from",
          "type": "address"
        },
        {
          "indexed": true,
          "internalType": "address",
          "name": "to",
          "type": "address"
        },
        {
          "indexed": true,
          "internalType": "uint256",
          "name": "tokenId",
          "type": "uint256"
        }
      ],
      "name": "Transfer",
      "type": "event"
    },
    {
      "inputs": [
        {
          "internalType": "address",
          "name": "to",
          "type": "address"
        },
        {
          "internalType": "uint256",
          "name": "tokenId",
          "type": "uint256"
        }
      ],
      "name": "approve",
      "outputs": [],
      "stateMutability": "nonpayable",
      "type": "function"
    },
    {
      "inputs": [
        {
          "internalType": "uint256",
          "name": "",
          "type": "uint256"
        }
      ],
      "name": "attractions",
      "outputs": [
        {
          "internalType": "uint256",
          "name": "id",
          "type": "uint256"
        },
        {
          "internalType": "int32",
          "name": "lat",
          "type": "int32"
        },
        {
          "internalType": "int32",
          "name": "lon",
          "type": "int32"
        },
        {
          "internalType": "string",
          "name": "name",
          "type": "string"
        },
        {
          "internalType": "string",
          "name": "description",
          "type": "string"
        }
      ],
      "stateMutability": "view",
      "type": "function"
    },
    {
      "inputs": [
        {
          "internalType": "address",
          "name": "owner",
          "type": "address"
        }
      ],
      "name": "balanceOf",
      "outputs": [
        {
          "internalType": "uint256",
          "name": "",
          "type": "uint256"
        }
      ],
      "stateMutability": "view",
      "type": "function"
    },
    {
      "inputs": [],
      "name": "getAllLocations",
      "outputs": [
        {
          "internalType": "uint256[]",
          "name": "",
          "type": "uint256[]"
        },
        {
          "internalType": "int32[]",
          "name": "",
          "type": "int32[]"
        },
        {
          "internalType": "int32[]",
          "name": "",
          "type": "int32[]"
        }
      ],
      "stateMutability": "view",
      "type": "function"
    },
    {
      "inputs": [
        {
          "internalType": "uint256",
          "name": "tokenId",
          "type": "uint256"
        }
      ],
      "name": "getApproved",
      "outputs": [
        {
          "internalType": "address",
          "name": "",
          "type": "address"
        }
      ],
      "stateMutability": "view",
      "type": "function"
    },
    {
      "inputs": [
        {
          "internalType": "uint256",
          "name": "id",
          "type": "uint256"
        }
      ],
      "name": "getDescription",
      "outputs": [
        {
          "internalType": "string",
          "name": "",
          "type": "string"
        }
      ],
      "stateMutability": "view",
      "type": "function"
    },
    {
      "inputs": [
        {
          "internalType": "uint256",
          "name": "id",
          "type": "uint256"
        }
      ],
      "name": "getLocation",
      "outputs": [
        {
          "internalType": "int32",
          "name": "",
          "type": "int32"
        },
        {
          "internalType": "int32",
          "name": "",
          "type": "int32"
        }
      ],
      "stateMutability": "view",
      "type": "function"
    },
    {
      "inputs": [
        {
          "internalType": "uint256",
          "name": "id",
          "type": "uint256"
        }
      ],
      "name": "getName",
      "outputs": [
        {
          "internalType": "string",
          "name": "",
          "type": "string"
        }
      ],
      "stateMutability": "view",
      "type": "function"
    },
    {
      "inputs": [
        {
          "internalType": "address",
          "name": "owner",
          "type": "address"
        },
        {
          "internalType": "address",
          "name": "operator",
          "type": "address"
        }
      ],
      "name": "isApprovedForAll",
      "outputs": [
        {
          "internalType": "bool",
          "name": "",
          "type": "bool"
        }
      ],
      "stateMutability": "view",
      "type": "function"
    },
    {
      "inputs": [
        {
          "internalType": "address",
          "name": "to",
          "type": "address"
        }
      ],
      "name": "mint",
      "outputs": [
        {
          "internalType": "uint256",
          "name": "",
          "type": "uint256"
        }
      ],
      "stateMutability": "nonpayable",
      "type": "function"
    },
    {
      "inputs": [],
      "name": "name",
      "outputs": [
        {
          "internalType": "string",
          "name": "",
          "type": "string"
        }
      ],
      "stateMutability": "view",
      "type": "function"
    },
    {
      "inputs": [],
      "name": "owner",
      "outputs": [
        {
          "internalType": "address",
          "name": "",
          "type": "address"
        }
      ],
      "stateMutability": "view",
      "type": "function"
    },
    {
      "inputs": [
        {
          "internalType": "uint256",
          "name": "tokenId",
          "type": "uint256"
        }
      ],
      "name": "ownerOf",
      "outputs": [
        {
          "internalType": "address",
          "name": "",
          "type": "address"
        }
      ],
      "stateMutability": "view",
      "type": "function"
    },
    {
      "inputs": [],
      "name": "renounceOwnership",
      "outputs": [],
      "stateMutability": "nonpayable",
      "type": "function"
    },
    {
      "inputs": [
        {
          "internalType": "address",
          "name": "from",
          "type": "address"
        },
        {
          "internalType": "address",
          "name": "to",
          "type": "address"
        },
        {
          "internalType": "uint256",
          "name": "tokenId",
          "type": "uint256"
        }
      ],
      "name": "safeTransferFrom",
      "outputs": [],
      "stateMutability": "nonpayable",
      "type": "function"
    },
    {
      "inputs": [
        {
          "internalType": "address",
          "name": "from",
          "type": "address"
        },
        {
          "internalType": "address",
          "name": "to",
          "type": "address"
        },
        {
          "internalType": "uint256",
          "name": "tokenId",
          "type": "uint256"
        },
        {
          "internalType": "bytes",
          "name": "data",
          "type": "bytes"
        }
      ],
      "name": "safeTransferFrom",
      "outputs": [],
      "stateMutability": "nonpayable",
      "type": "function"
    },
    {
      "inputs": [
        {
          "internalType": "address",
          "name": "operator",
          "type": "address"
        },
        {
          "internalType": "bool",
          "name": "approved",
          "type": "bool"
        }
      ],
      "name": "setApprovalForAll",
      "outputs": [],
      "stateMutability": "nonpayable",
      "type": "function"
    },
    {
      "inputs": [
        {
          "internalType": "uint256",
          "name": "id",
          "type": "uint256"
        },
        {
          "internalType": "string",
          "name": "description",
          "type": "string"
        }
      ],
      "name": "setDescription",
      "outputs": [],
      "stateMutability": "nonpayable",
      "type": "function"
    },
    {
      "inputs": [
        {
          "internalType": "uint256",
          "name": "id",
          "type": "uint256"
        },
        {
          "internalType": "int32",
          "name": "lat",
          "type": "int32"
        },
        {
          "internalType": "int32",
          "name": "lon",
          "type": "int32"
        }
      ],
      "name": "setLocation",
      "outputs": [],
      "stateMutability": "nonpayable",
      "type": "function"
    },
    {
      "inputs": [
        {
          "internalType": "uint256",
          "name": "id",
          "type": "uint256"
        },
        {
          "internalType": "string",
          "name": "name",
          "type": "string"
        }
      ],
      "name": "setName",
      "outputs": [],
      "stateMutability": "nonpayable",
      "type": "function"
    },
    {
      "inputs": [
        {
          "internalType": "bytes4",
          "name": "interfaceId",
          "type": "bytes4"
        }
      ],
      "name": "supportsInterface",
      "outputs": [
        {
          "internalType": "bool",
          "name": "",
          "type": "bool"
        }
      ],
      "stateMutability": "view",
      "type": "function"
    },
    {
      "inputs": [],
      "name": "symbol",
      "outputs": [
        {
          "internalType": "string",
          "name": "",
          "type": "string"
        }
      ],
      "stateMutability": "view",
      "type": "function"
    },
    {
      "inputs": [
        {
          "internalType": "uint256",
          "name": "index",
          "type": "uint256"
        }
      ],
      "name": "tokenByIndex",
      "outputs": [
        {
          "internalType": "uint256",
          "name": "",
          "type": "uint256"
        }
      ],
      "stateMutability": "view",
      "type": "function"
    },
    {
      "inputs": [
        {
          "internalType": "address",
          "name": "owner",
          "type": "address"
        },
        {
          "internalType": "uint256",
          "name": "index",
          "type": "uint256"
        }
      ],
      "name": "tokenOfOwnerByIndex",
      "outputs": [
        {
          "internalType": "uint256",
          "name": "",
          "type": "uint256"
        }
      ],
      "stateMutability": "view",
      "type": "function"
    },
    {
      "inputs": [
        {
          "internalType": "uint256",
          "name": "tokenId",
          "type": "uint256"
        }
      ],
      "name": "tokenURI",
      "outputs": [
        {
          "internalType": "string",
          "name": "",
          "type": "string"
        }
      ],
      "stateMutability": "view",
      "type": "function"
    },
    {
      "inputs": [],
      "name": "totalSupply",
      "outputs": [
        {
          "internalType": "uint256",
          "name": "",
          "type": "uint256"
        }
      ],
      "stateMutability": "view",
      "type": "function"
    },
    {
      "inputs": [
        {
          "internalType": "address",
          "name": "from",
          "type": "address"
        },
        {
          "internalType": "address",
          "name": "to",
          "type": "address"
        },
        {
          "internalType": "uint256",
          "name": "tokenId",
          "type": "uint256"
        }
      ],
      "name": "transferFrom",
      "outputs": [],
      "stateMutability": "nonpayable",
      "type": "function"
    },
    {
      "inputs": [
        {
          "internalType": "address",
          "name": "newOwner",
          "type": "address"
        }
      ],
      "name": "transferOwnership",
      "outputs": [],
      "stateMutability": "nonpayable",
      "type": "function"
    },
    {
      "inputs": [
        {
          "internalType": "uint256",
          "name": "id",
          "type": "uint256"
        },
        {
          "internalType": "string",
          "name": "name",
          "type": "string"
        },
        {
          "internalType": "string",
          "name": "description",
          "type": "string"
        },
        {
          "internalType": "int32",
          "name": "lat",
          "type": "int32"
        },
        {
          "internalType": "int32",
          "name": "lon",
          "type": "int32"
        }
      ],
      "name": "updateToken",
      "outputs": [],
      "stateMutability": "nonpayable",
      "type": "function"
    }
  ],
  "bytecode": "0x60806040523480156200001157600080fd5b506040518060400160405280601481526020017f466c79636f6e6f6d7941747472616374696f6e730000000000000000000000008152506040518060400160405280600481526020017f464c59410000000000000000000000000000000000000000000000000000000081525081600090816200008f919062000412565b508060019081620000a1919062000412565b505050620000c4620000b8620000ca60201b60201c565b620000d260201b60201c565b620004f9565b600033905090565b6000600a60009054906101000a900473ffffffffffffffffffffffffffffffffffffffff16905081600a60006101000a81548173ffffffffffffffffffffffffffffffffffffffff021916908373ffffffffffffffffffffffffffffffffffffffff1602179055508173ffffffffffffffffffffffffffffffffffffffff168173ffffffffffffffffffffffffffffffffffffffff167f8be0079c531659141344cd1fd0a4f28419497f9722a3daafe3b4186f6b6457e060405160405180910390a35050565b600081519050919050565b7f4e487b7100000000000000000000000000000000000000000000000000000000600052604160045260246000fd5b7f4e487b7100000000000000000000000000000000000000000000000000000000600052602260045260246000fd5b600060028204905060018216806200021a57607f821691505b60208210810362000230576200022f620001d2565b5b50919050565b60008190508160005260206000209050919050565b60006020601f8301049050919050565b600082821b905092915050565b6000600883026200029a7fffffffffffffffffffffffffffffffffffffffffffffffffffffffffffffffff826200025b565b620002a686836200025b565b95508019841693508086168417925050509392505050565b6000819050919050565b6000819050919050565b6000620002f3620002ed620002e784620002be565b620002c8565b620002be565b9050919050565b6000819050919050565b6200030f83620002d2565b620003276200031e82620002fa565b84845462000268565b825550505050565b600090565b6200033e6200032f565b6200034b81848462000304565b505050565b5b8181101562000373576200036760008262000334565b60018101905062000351565b5050565b601f821115620003c2576200038c8162000236565b62000397846200024b565b81016020851015620003a7578190505b620003bf620003b6856200024b565b83018262000350565b50505b505050565b600082821c905092915050565b6000620003e760001984600802620003c7565b1980831691505092915050565b6000620004028383620003d4565b9150826002028217905092915050565b6200041d8262000198565b67ffffffffffffffff811115620004395762000438620001a3565b5b62000445825462000201565b6200045282828562000377565b600060209050601f8311600181146200048a576000841562000475578287015190505b620004818582620003f4565b865550620004f1565b601f1984166200049a8662000236565b60005b82811015620004c4578489015182556001820191506020850194506020810190506200049d565b86831015620004e45784890151620004e0601f891682620003d4565b8355505b6001600288020188555050505b505050505050565b6141ad80620005096000396000f3fe608060405234801561001057600080fd5b50600436106101cf5760003560e01c80636b8ff5741161010457806398912eff116100a2578063dda9bf3a11610071578063dda9bf3a1461057f578063e985e9c51461059b578063f2fde38b146105cb578063fe55932a146105e7576101cf565b806398912eff146104fb578063a22cb46514610517578063b88d4fde14610533578063c87b56dd1461054f576101cf565b8063715018a6116100de578063715018a6146104845780637f7b13931461048e5780638da5cb5b146104bf57806395d89b41146104dd576101cf565b80636b8ff574146103f057806370a082311461042057806371187fd614610450576101cf565b80632a6446ca116101715780634925ec551161014b5780634925ec55146103305780634f6ccce7146103605780636352211e146103905780636a627842146103c0576101cf565b80632a6446ca146102c85780632f745c59146102e457806342842e0e14610314576101cf565b8063095ea7b3116101ad578063095ea7b3146102525780631076e9671461026e57806318160ddd1461028e57806323b872dd146102ac576101cf565b806301ffc9a7146101d457806306fdde0314610204578063081812fc14610222575b600080fd5b6101ee60048036038101906101e991906129d1565b610603565b6040516101fb9190612a19565b60405180910390f35b61020c61067d565b6040516102199190612ac4565b60405180910390f35b61023c60048036038101906102379190612b1c565b61070f565b6040516102499190612b8a565b60405180910390f35b61026c60048036038101906102679190612bd1565b610755565b005b61027661086c565b60405161028593929190612d9a565b60405180910390f35b610296610a4b565b6040516102a39190612df5565b60405180910390f35b6102c660048036038101906102c19190612e10565b610a58565b005b6102e260048036038101906102dd9190612f98565b610ab8565b005b6102fe60048036038101906102f99190612bd1565b610aee565b60405161030b9190612df5565b60405180910390f35b61032e60048036038101906103299190612e10565b610b93565b005b61034a60048036038101906103459190612b1c565b610bb3565b6040516103579190612ac4565b60405180910390f35b61037a60048036038101906103759190612b1c565b610c61565b6040516103879190612df5565b60405180910390f35b6103aa60048036038101906103a59190612b1c565b610cd2565b6040516103b79190612b8a565b60405180910390f35b6103da60048036038101906103d59190612ff4565b610d58565b6040516103e79190612df5565b60405180910390f35b61040a60048036038101906104059190612b1c565b610e74565b6040516104179190612ac4565b60405180910390f35b61043a60048036038101906104359190612ff4565b610f22565b6040516104479190612df5565b60405180910390f35b61046a60048036038101906104659190612b1c565b610fd9565b60405161047b959493929190613030565b60405180910390f35b61048c611139565b005b6104a860048036038101906104a39190612b1c565b61114d565b6040516104b6929190613091565b60405180910390f35b6104c7611195565b6040516104d49190612b8a565b60405180910390f35b6104e56111bf565b6040516104f29190612ac4565b60405180910390f35b610515600480360381019061051091906130e6565b611251565b005b610531600480360381019061052c9190613165565b6112c2565b005b61054d60048036038101906105489190613246565b6112d8565b005b61056960048036038101906105649190612b1c565b61133a565b6040516105769190612ac4565b60405180910390f35b610599600480360381019061059491906132c9565b6113a2565b005b6105b560048036038101906105b0919061337c565b611439565b6040516105c29190612a19565b60405180910390f35b6105e560048036038101906105e09190612ff4565b6114cd565b005b61060160048036038101906105fc9190612f98565b611550565b005b60007f780e9d63000000000000000000000000000000000000000000000000000000007bffffffffffffffffffffffffffffffffffffffffffffffffffffffff1916827bffffffffffffffffffffffffffffffffffffffffffffffffffffffff19161480610676575061067582611586565b5b9050919050565b60606000805461068c906133eb565b80601f01602080910402602001604051908101604052809291908181526020018280546106b8906133eb565b80156107055780601f106106da57610100808354040283529160200191610705565b820191906000526020600020905b8154815290600101906020018083116106e857829003601f168201915b5050505050905090565b600061071a82611668565b6004600083815260200190815260200160002060009054906101000a900473ffffffffffffffffffffffffffffffffffffffff169050919050565b600061076082610cd2565b90508073ffffffffffffffffffffffffffffffffffffffff168373ffffffffffffffffffffffffffffffffffffffff16036107d0576040517f08c379a00000000000000000000000000000000000000000000000000000000081526004016107c79061348e565b60405180910390fd5b8073ffffffffffffffffffffffffffffffffffffffff166107ef6116b3565b73ffffffffffffffffffffffffffffffffffffffff16148061081e575061081d816108186116b3565b611439565b5b61085d576040517f08c379a000000000000000000000000000000000000000000000000000000000815260040161085490613520565b60405180910390fd5b61086783836116bb565b505050565b6060806060600061087b610a4b565b905060008167ffffffffffffffff81111561089957610898612e6d565b5b6040519080825280602002602001820160405280156108c75781602001602082028036833780820191505090505b50905060008267ffffffffffffffff8111156108e6576108e5612e6d565b5b6040519080825280602002602001820160405280156109145781602001602082028036833780820191505090505b50905060008367ffffffffffffffff81111561093357610932612e6d565b5b6040519080825280602002602001820160405280156109615781602001602082028036833780820191505090505b50905060005b84811015610a38578084828151811061098357610982613540565b5b602002602001018181525050600b600082815260200190815260200160002060010160009054906101000a900460030b8382815181106109c6576109c5613540565b5b602002602001019060030b908160030b81525050600b600082815260200190815260200160002060010160049054906101000a900460030b828281518110610a1157610a10613540565b5b602002602001019060030b908160030b815250508080610a309061359e565b915050610967565b5082828296509650965050505050909192565b6000600880549050905090565b610a69610a636116b3565b82611774565b610aa8576040517f08c379a0000000000000000000000000000000000000000000000000000000008152600401610a9f90613658565b60405180910390fd5b610ab3838383611809565b505050565b610ac0611b02565b6000600b6000848152602001908152602001600020905081816003019081610ae89190613824565b50505050565b6000610af983610f22565b8210610b3a576040517f08c379a0000000000000000000000000000000000000000000000000000000008152600401610b3190613968565b60405180910390fd5b600660008473ffffffffffffffffffffffffffffffffffffffff1673ffffffffffffffffffffffffffffffffffffffff168152602001908152602001600020600083815260200190815260200160002054905092915050565b610bae838383604051806020016040528060008152506112d8565b505050565b60606000600b60008481526020019081526020016000209050806003018054610bdb906133eb565b80601f0160208091040260200160405190810160405280929190818152602001828054610c07906133eb565b8015610c545780601f10610c2957610100808354040283529160200191610c54565b820191906000526020600020905b815481529060010190602001808311610c3757829003601f168201915b5050505050915050919050565b6000610c6b610a4b565b8210610cac576040517f08c379a0000000000000000000000000000000000000000000000000000000008152600401610ca3906139fa565b60405180910390fd5b60088281548110610cc057610cbf613540565b5b90600052602060002001549050919050565b600080610cde83611b80565b9050600073ffffffffffffffffffffffffffffffffffffffff168173ffffffffffffffffffffffffffffffffffffffff1603610d4f576040517f08c379a0000000000000000000000000000000000000000000000000000000008152600401610d4690613a66565b60405180910390fd5b80915050919050565b6000610d62611b02565b6000610d6c610a4b565b9050610d788382611bbd565b60006040518060a00160405280838152602001600060030b8152602001600060030b815260200160405180602001604052806000815250815260200160405180602001604052806000815250815250905080600b60008481526020019081526020016000206000820151816000015560208201518160010160006101000a81548163ffffffff021916908360030b63ffffffff16021790555060408201518160010160046101000a81548163ffffffff021916908360030b63ffffffff1602179055506060820151816002019081610e509190613824565b506080820151816003019081610e669190613824565b509050508192505050919050565b60606000600b60008481526020019081526020016000209050806002018054610e9c906133eb565b80601f0160208091040260200160405190810160405280929190818152602001828054610ec8906133eb565b8015610f155780601f10610eea57610100808354040283529160200191610f15565b820191906000526020600020905b815481529060010190602001808311610ef857829003601f168201915b5050505050915050919050565b60008073ffffffffffffffffffffffffffffffffffffffff168273ffffffffffffffffffffffffffffffffffffffff1603610f92576040517f08c379a0000000000000000000000000000000000000000000000000000000008152600401610f8990613af8565b60405180910390fd5b600360008373ffffffffffffffffffffffffffffffffffffffff1673ffffffffffffffffffffffffffffffffffffffff168152602001908152602001600020549050919050565b600b6020528060005260406000206000915090508060000154908060010160009054906101000a900460030b908060010160049054906101000a900460030b90806002018054611028906133eb565b80601f0160208091040260200160405190810160405280929190818152602001828054611054906133eb565b80156110a15780601f10611076576101008083540402835291602001916110a1565b820191906000526020600020905b81548152906001019060200180831161108457829003601f168201915b5050505050908060030180546110b6906133eb565b80601f01602080910402602001604051908101604052809291908181526020018280546110e2906133eb565b801561112f5780601f106111045761010080835404028352916020019161112f565b820191906000526020600020905b81548152906001019060200180831161111257829003601f168201915b5050505050905085565b611141611b02565b61114b6000611dda565b565b6000806000600b600085815260200190815260200160002090508060010160009054906101000a900460030b8160010160049054906101000a900460030b9250925050915091565b6000600a60009054906101000a900473ffffffffffffffffffffffffffffffffffffffff16905090565b6060600180546111ce906133eb565b80601f01602080910402602001604051908101604052809291908181526020018280546111fa906133eb565b80156112475780601f1061121c57610100808354040283529160200191611247565b820191906000526020600020905b81548152906001019060200180831161122a57829003601f168201915b5050505050905090565b611259611b02565b6000600b60008581526020019081526020016000209050828160010160006101000a81548163ffffffff021916908360030b63ffffffff160217905550818160010160046101000a81548163ffffffff021916908360030b63ffffffff16021790555050505050565b6112d46112cd6116b3565b8383611ea0565b5050565b6112e96112e36116b3565b83611774565b611328576040517f08c379a000000000000000000000000000000000000000000000000000000000815260040161131f90613658565b60405180910390fd5b6113348484848461200c565b50505050565b606061134582611668565b600061134f612068565b9050600081511161136f576040518060200160405280600081525061139a565b806113798461207f565b60405160200161138a929190613b54565b6040516020818303038152906040525b915050919050565b6113aa611b02565b6000600b60008781526020019081526020016000209050848160020190816113d29190613824565b50838160030190816113e49190613824565b50828160010160006101000a81548163ffffffff021916908360030b63ffffffff160217905550818160010160046101000a81548163ffffffff021916908360030b63ffffffff160217905550505050505050565b6000600560008473ffffffffffffffffffffffffffffffffffffffff1673ffffffffffffffffffffffffffffffffffffffff16815260200190815260200160002060008373ffffffffffffffffffffffffffffffffffffffff1673ffffffffffffffffffffffffffffffffffffffff16815260200190815260200160002060009054906101000a900460ff16905092915050565b6114d5611b02565b600073ffffffffffffffffffffffffffffffffffffffff168173ffffffffffffffffffffffffffffffffffffffff1603611544576040517f08c379a000000000000000000000000000000000000000000000000000000000815260040161153b90613bea565b60405180910390fd5b61154d81611dda565b50565b611558611b02565b6000600b60008481526020019081526020016000209050818160020190816115809190613824565b50505050565b60007f80ac58cd000000000000000000000000000000000000000000000000000000007bffffffffffffffffffffffffffffffffffffffffffffffffffffffff1916827bffffffffffffffffffffffffffffffffffffffffffffffffffffffff1916148061165157507f5b5e139f000000000000000000000000000000000000000000000000000000007bffffffffffffffffffffffffffffffffffffffffffffffffffffffff1916827bffffffffffffffffffffffffffffffffffffffffffffffffffffffff1916145b8061166157506116608261214d565b5b9050919050565b611671816121b7565b6116b0576040517f08c379a00000000000000000000000000000000000000000000000000000000081526004016116a790613a66565b60405180910390fd5b50565b600033905090565b816004600083815260200190815260200160002060006101000a81548173ffffffffffffffffffffffffffffffffffffffff021916908373ffffffffffffffffffffffffffffffffffffffff160217905550808273ffffffffffffffffffffffffffffffffffffffff1661172e83610cd2565b73ffffffffffffffffffffffffffffffffffffffff167f8c5be1e5ebec7d5bd14f71427d1e84f3dd0314c0f7b2291e5b200ac8c7c3b92560405160405180910390a45050565b60008061178083610cd2565b90508073ffffffffffffffffffffffffffffffffffffffff168473ffffffffffffffffffffffffffffffffffffffff1614806117c257506117c18185611439565b5b8061180057508373ffffffffffffffffffffffffffffffffffffffff166117e88461070f565b73ffffffffffffffffffffffffffffffffffffffff16145b91505092915050565b8273ffffffffffffffffffffffffffffffffffffffff1661182982610cd2565b73ffffffffffffffffffffffffffffffffffffffff161461187f576040517f08c379a000000000000000000000000000000000000000000000000000000000815260040161187690613c7c565b60405180910390fd5b600073ffffffffffffffffffffffffffffffffffffffff168273ffffffffffffffffffffffffffffffffffffffff16036118ee576040517f08c379a00000000000000000000000000000000000000000000000000000000081526004016118e590613d0e565b60405180910390fd5b6118fb83838360016121f8565b8273ffffffffffffffffffffffffffffffffffffffff1661191b82610cd2565b73ffffffffffffffffffffffffffffffffffffffff1614611971576040517f08c379a000000000000000000000000000000000000000000000000000000000815260040161196890613c7c565b60405180910390fd5b6004600082815260200190815260200160002060006101000a81549073ffffffffffffffffffffffffffffffffffffffff02191690556001600360008573ffffffffffffffffffffffffffffffffffffffff1673ffffffffffffffffffffffffffffffffffffffff168152602001908152602001600020600082825403925050819055506001600360008473ffffffffffffffffffffffffffffffffffffffff1673ffffffffffffffffffffffffffffffffffffffff16815260200190815260200160002060008282540192505081905550816002600083815260200190815260200160002060006101000a81548173ffffffffffffffffffffffffffffffffffffffff021916908373ffffffffffffffffffffffffffffffffffffffff160217905550808273ffffffffffffffffffffffffffffffffffffffff168473ffffffffffffffffffffffffffffffffffffffff167fddf252ad1be2c89b69c2b068fc378daa952ba7f163c4a11628f55a4df523b3ef60405160405180910390a4611afd8383836001612356565b505050565b611b0a6116b3565b73ffffffffffffffffffffffffffffffffffffffff16611b28611195565b73ffffffffffffffffffffffffffffffffffffffff1614611b7e576040517f08c379a0000000000000000000000000000000000000000000000000000000008152600401611b7590613d7a565b60405180910390fd5b565b60006002600083815260200190815260200160002060009054906101000a900473ffffffffffffffffffffffffffffffffffffffff169050919050565b600073ffffffffffffffffffffffffffffffffffffffff168273ffffffffffffffffffffffffffffffffffffffff1603611c2c576040517f08c379a0000000000000000000000000000000000000000000000000000000008152600401611c2390613de6565b60405180910390fd5b611c35816121b7565b15611c75576040517f08c379a0000000000000000000000000000000000000000000000000000000008152600401611c6c90613e52565b60405180910390fd5b611c836000838360016121f8565b611c8c816121b7565b15611ccc576040517f08c379a0000000000000000000000000000000000000000000000000000000008152600401611cc390613e52565b60405180910390fd5b6001600360008473ffffffffffffffffffffffffffffffffffffffff1673ffffffffffffffffffffffffffffffffffffffff16815260200190815260200160002060008282540192505081905550816002600083815260200190815260200160002060006101000a81548173ffffffffffffffffffffffffffffffffffffffff021916908373ffffffffffffffffffffffffffffffffffffffff160217905550808273ffffffffffffffffffffffffffffffffffffffff16600073ffffffffffffffffffffffffffffffffffffffff167fddf252ad1be2c89b69c2b068fc378daa952ba7f163c4a11628f55a4df523b3ef60405160405180910390a4611dd6600083836001612356565b5050565b6000600a60009054906101000a900473ffffffffffffffffffffffffffffffffffffffff16905081600a60006101000a81548173ffffffffffffffffffffffffffffffffffffffff021916908373ffffffffffffffffffffffffffffffffffffffff1602179055508173ffffffffffffffffffffffffffffffffffffffff168173ffffffffffffffffffffffffffffffffffffffff167f8be0079c531659141344cd1fd0a4f28419497f9722a3daafe3b4186f6b6457e060405160405180910390a35050565b8173ffffffffffffffffffffffffffffffffffffffff168373ffffffffffffffffffffffffffffffffffffffff1603611f0e576040517f08c379a0000000000000000000000000000000000000000000000000000000008152600401611f0590613ebe565b60405180910390fd5b80600560008573ffffffffffffffffffffffffffffffffffffffff1673ffffffffffffffffffffffffffffffffffffffff16815260200190815260200160002060008473ffffffffffffffffffffffffffffffffffffffff1673ffffffffffffffffffffffffffffffffffffffff16815260200190815260200160002060006101000a81548160ff0219169083151502179055508173ffffffffffffffffffffffffffffffffffffffff168373ffffffffffffffffffffffffffffffffffffffff167f17307eab39ab6107e8899845ad3d59bd9653f200f220920489ca2b5937696c3183604051611fff9190612a19565b60405180910390a3505050565b612017848484611809565b6120238484848461235c565b612062576040517f08c379a000000000000000000000000000000000000000000000000000000000815260040161205990613f50565b60405180910390fd5b50505050565b606060405180602001604052806000815250905090565b60606000600161208e846124e3565b01905060008167ffffffffffffffff8111156120ad576120ac612e6d565b5b6040519080825280601f01601f1916602001820160405280156120df5781602001600182028036833780820191505090505b509050600082602001820190505b600115612142578080600190039150507f3031323334353637383961626364656600000000000000000000000000000000600a86061a8153600a858161213657612135613f70565b5b049450600085036120ed575b819350505050919050565b60007f01ffc9a7000000000000000000000000000000000000000000000000000000007bffffffffffffffffffffffffffffffffffffffffffffffffffffffff1916827bffffffffffffffffffffffffffffffffffffffffffffffffffffffff1916149050919050565b60008073ffffffffffffffffffffffffffffffffffffffff166121d983611b80565b73ffffffffffffffffffffffffffffffffffffffff1614159050919050565b61220484848484612636565b6001811115612248576040517f08c379a000000000000000000000000000000000000000000000000000000000815260040161223f90614011565b60405180910390fd5b6000829050600073ffffffffffffffffffffffffffffffffffffffff168573ffffffffffffffffffffffffffffffffffffffff160361228f5761228a8161263c565b6122ce565b8373ffffffffffffffffffffffffffffffffffffffff168573ffffffffffffffffffffffffffffffffffffffff16146122cd576122cc8582612685565b5b5b600073ffffffffffffffffffffffffffffffffffffffff168473ffffffffffffffffffffffffffffffffffffffff16036123105761230b816127f2565b61234f565b8473ffffffffffffffffffffffffffffffffffffffff168473ffffffffffffffffffffffffffffffffffffffff161461234e5761234d84826128c3565b5b5b5050505050565b50505050565b600061237d8473ffffffffffffffffffffffffffffffffffffffff16612942565b156124d6578373ffffffffffffffffffffffffffffffffffffffff1663150b7a026123a66116b3565b8786866040518563ffffffff1660e01b81526004016123c89493929190614086565b6020604051808303816000875af192505050801561240457506040513d601f19601f8201168201806040525081019061240191906140e7565b60015b612486573d8060008114612434576040519150601f19603f3d011682016040523d82523d6000602084013e612439565b606091505b50600081510361247e576040517f08c379a000000000000000000000000000000000000000000000000000000000815260040161247590613f50565b60405180910390fd5b805181602001fd5b63150b7a0260e01b7bffffffffffffffffffffffffffffffffffffffffffffffffffffffff1916817bffffffffffffffffffffffffffffffffffffffffffffffffffffffff1916149150506124db565b600190505b949350505050565b600080600090507a184f03e93ff9f4daa797ed6e38ed64bf6a1f0100000000000000008310612541577a184f03e93ff9f4daa797ed6e38ed64bf6a1f010000000000000000838161253757612536613f70565b5b0492506040810190505b6d04ee2d6d415b85acef8100000000831061257e576d04ee2d6d415b85acef8100000000838161257457612573613f70565b5b0492506020810190505b662386f26fc1000083106125ad57662386f26fc1000083816125a3576125a2613f70565b5b0492506010810190505b6305f5e10083106125d6576305f5e10083816125cc576125cb613f70565b5b0492506008810190505b61271083106125fb5761271083816125f1576125f0613f70565b5b0492506004810190505b6064831061261e576064838161261457612613613f70565b5b0492506002810190505b600a831061262d576001810190505b80915050919050565b50505050565b6008805490506009600083815260200190815260200160002081905550600881908060018154018082558091505060019003906000526020600020016000909190919091505550565b6000600161269284610f22565b61269c9190614114565b9050600060076000848152602001908152602001600020549050818114612781576000600660008673ffffffffffffffffffffffffffffffffffffffff1673ffffffffffffffffffffffffffffffffffffffff168152602001908152602001600020600084815260200190815260200160002054905080600660008773ffffffffffffffffffffffffffffffffffffffff1673ffffffffffffffffffffffffffffffffffffffff168152602001908152602001600020600084815260200190815260200160002081905550816007600083815260200190815260200160002081905550505b6007600084815260200190815260200160002060009055600660008573ffffffffffffffffffffffffffffffffffffffff1673ffffffffffffffffffffffffffffffffffffffff16815260200190815260200160002060008381526020019081526020016000206000905550505050565b600060016008805490506128069190614114565b905060006009600084815260200190815260200160002054905060006008838154811061283657612835613540565b5b90600052602060002001549050806008838154811061285857612857613540565b5b9060005260206000200181905550816009600083815260200190815260200160002081905550600960008581526020019081526020016000206000905560088054806128a7576128a6614148565b5b6001900381819060005260206000200160009055905550505050565b60006128ce83610f22565b905081600660008573ffffffffffffffffffffffffffffffffffffffff1673ffffffffffffffffffffffffffffffffffffffff168152602001908152602001600020600083815260200190815260200160002081905550806007600084815260200190815260200160002081905550505050565b6000808273ffffffffffffffffffffffffffffffffffffffff163b119050919050565b6000604051905090565b600080fd5b600080fd5b60007fffffffff0000000000000000000000000000000000000000000000000000000082169050919050565b6129ae81612979565b81146129b957600080fd5b50565b6000813590506129cb816129a5565b92915050565b6000602082840312156129e7576129e661296f565b5b60006129f5848285016129bc565b91505092915050565b60008115159050919050565b612a13816129fe565b82525050565b6000602082019050612a2e6000830184612a0a565b92915050565b600081519050919050565b600082825260208201905092915050565b60005b83811015612a6e578082015181840152602081019050612a53565b60008484015250505050565b6000601f19601f8301169050919050565b6000612a9682612a34565b612aa08185612a3f565b9350612ab0818560208601612a50565b612ab981612a7a565b840191505092915050565b60006020820190508181036000830152612ade8184612a8b565b905092915050565b6000819050919050565b612af981612ae6565b8114612b0457600080fd5b50565b600081359050612b1681612af0565b92915050565b600060208284031215612b3257612b3161296f565b5b6000612b4084828501612b07565b91505092915050565b600073ffffffffffffffffffffffffffffffffffffffff82169050919050565b6000612b7482612b49565b9050919050565b612b8481612b69565b82525050565b6000602082019050612b9f6000830184612b7b565b92915050565b612bae81612b69565b8114612bb957600080fd5b50565b600081359050612bcb81612ba5565b92915050565b60008060408385031215612be857612be761296f565b5b6000612bf685828601612bbc565b9250506020612c0785828601612b07565b9150509250929050565b600081519050919050565b600082825260208201905092915050565b6000819050602082019050919050565b612c4681612ae6565b82525050565b6000612c588383612c3d565b60208301905092915050565b6000602082019050919050565b6000612c7c82612c11565b612c868185612c1c565b9350612c9183612c2d565b8060005b83811015612cc2578151612ca98882612c4c565b9750612cb483612c64565b925050600181019050612c95565b5085935050505092915050565b600081519050919050565b600082825260208201905092915050565b6000819050602082019050919050565b60008160030b9050919050565b612d1181612cfb565b82525050565b6000612d238383612d08565b60208301905092915050565b6000602082019050919050565b6000612d4782612ccf565b612d518185612cda565b9350612d5c83612ceb565b8060005b83811015612d8d578151612d748882612d17565b9750612d7f83612d2f565b925050600181019050612d60565b5085935050505092915050565b60006060820190508181036000830152612db48186612c71565b90508181036020830152612dc88185612d3c565b90508181036040830152612ddc8184612d3c565b9050949350505050565b612def81612ae6565b82525050565b6000602082019050612e0a6000830184612de6565b92915050565b600080600060608486031215612e2957612e2861296f565b5b6000612e3786828701612bbc565b9350506020612e4886828701612bbc565b9250506040612e5986828701612b07565b9150509250925092565b600080fd5b600080fd5b7f4e487b7100000000000000000000000000000000000000000000000000000000600052604160045260246000fd5b612ea582612a7a565b810181811067ffffffffffffffff82111715612ec457612ec3612e6d565b5b80604052505050565b6000612ed7612965565b9050612ee38282612e9c565b919050565b600067ffffffffffffffff821115612f0357612f02612e6d565b5b612f0c82612a7a565b9050602081019050919050565b82818337600083830152505050565b6000612f3b612f3684612ee8565b612ecd565b905082815260208101848484011115612f5757612f56612e68565b5b612f62848285612f19565b509392505050565b600082601f830112612f7f57612f7e612e63565b5b8135612f8f848260208601612f28565b91505092915050565b60008060408385031215612faf57612fae61296f565b5b6000612fbd85828601612b07565b925050602083013567ffffffffffffffff811115612fde57612fdd612974565b5b612fea85828601612f6a565b9150509250929050565b60006020828403121561300a5761300961296f565b5b600061301884828501612bbc565b91505092915050565b61302a81612cfb565b82525050565b600060a0820190506130456000830188612de6565b6130526020830187613021565b61305f6040830186613021565b81810360608301526130718185612a8b565b905081810360808301526130858184612a8b565b90509695505050505050565b60006040820190506130a66000830185613021565b6130b36020830184613021565b9392505050565b6130c381612cfb565b81146130ce57600080fd5b50565b6000813590506130e0816130ba565b92915050565b6000806000606084860312156130ff576130fe61296f565b5b600061310d86828701612b07565b935050602061311e868287016130d1565b925050604061312f868287016130d1565b9150509250925092565b613142816129fe565b811461314d57600080fd5b50565b60008135905061315f81613139565b92915050565b6000806040838503121561317c5761317b61296f565b5b600061318a85828601612bbc565b925050602061319b85828601613150565b9150509250929050565b600067ffffffffffffffff8211156131c0576131bf612e6d565b5b6131c982612a7a565b9050602081019050919050565b60006131e96131e4846131a5565b612ecd565b90508281526020810184848401111561320557613204612e68565b5b613210848285612f19565b509392505050565b600082601f83011261322d5761322c612e63565b5b813561323d8482602086016131d6565b91505092915050565b600080600080608085870312156132605761325f61296f565b5b600061326e87828801612bbc565b945050602061327f87828801612bbc565b935050604061329087828801612b07565b925050606085013567ffffffffffffffff8111156132b1576132b0612974565b5b6132bd87828801613218565b91505092959194509250565b600080600080600060a086880312156132e5576132e461296f565b5b60006132f388828901612b07565b955050602086013567ffffffffffffffff81111561331457613313612974565b5b61332088828901612f6a565b945050604086013567ffffffffffffffff81111561334157613340612974565b5b61334d88828901612f6a565b935050606061335e888289016130d1565b925050608061336f888289016130d1565b9150509295509295909350565b600080604083850312156133935761339261296f565b5b60006133a185828601612bbc565b92505060206133b285828601612bbc565b9150509250929050565b7f4e487b7100000000000000000000000000000000000000000000000000000000600052602260045260246000fd5b6000600282049050600182168061340357607f821691505b602082108103613416576134156133bc565b5b50919050565b7f4552433732313a20617070726f76616c20746f2063757272656e74206f776e6560008201527f7200000000000000000000000000000000000000000000000000000000000000602082015250565b6000613478602183612a3f565b91506134838261341c565b604082019050919050565b600060208201905081810360008301526134a78161346b565b9050919050565b7f4552433732313a20617070726f76652063616c6c6572206973206e6f7420746f60008201527f6b656e206f776e6572206f7220617070726f76656420666f7220616c6c000000602082015250565b600061350a603d83612a3f565b9150613515826134ae565b604082019050919050565b60006020820190508181036000830152613539816134fd565b9050919050565b7f4e487b7100000000000000000000000000000000000000000000000000000000600052603260045260246000fd5b7f4e487b7100000000000000000000000000000000000000000000000000000000600052601160045260246000fd5b60006135a982612ae6565b91507fffffffffffffffffffffffffffffffffffffffffffffffffffffffffffffffff82036135db576135da61356f565b5b600182019050919050565b7f4552433732313a2063616c6c6572206973206e6f7420746f6b656e206f776e6560008201527f72206f7220617070726f76656400000000000000000000000000000000000000602082015250565b6000613642602d83612a3f565b915061364d826135e6565b604082019050919050565b6000602082019050818103600083015261367181613635565b9050919050565b60008190508160005260206000209050919050565b60006020601f8301049050919050565b600082821b905092915050565b6000600883026136da7fffffffffffffffffffffffffffffffffffffffffffffffffffffffffffffffff8261369d565b6136e4868361369d565b95508019841693508086168417925050509392505050565b6000819050919050565b600061372161371c61371784612ae6565b6136fc565b612ae6565b9050919050565b6000819050919050565b61373b83613706565b61374f61374782613728565b8484546136aa565b825550505050565b600090565b613764613757565b61376f818484613732565b505050565b5b818110156137935761378860008261375c565b600181019050613775565b5050565b601f8211156137d8576137a981613678565b6137b28461368d565b810160208510156137c1578190505b6137d56137cd8561368d565b830182613774565b50505b505050565b600082821c905092915050565b60006137fb600019846008026137dd565b1980831691505092915050565b600061381483836137ea565b9150826002028217905092915050565b61382d82612a34565b67ffffffffffffffff81111561384657613845612e6d565b5b61385082546133eb565b61385b828285613797565b600060209050601f83116001811461388e576000841561387c578287015190505b6138868582613808565b8655506138ee565b601f19841661389c86613678565b60005b828110156138c45784890151825560018201915060208501945060208101905061389f565b868310156138e157848901516138dd601f8916826137ea565b8355505b6001600288020188555050505b505050505050565b7f455243373231456e756d657261626c653a206f776e657220696e646578206f7560008201527f74206f6620626f756e6473000000000000000000000000000000000000000000602082015250565b6000613952602b83612a3f565b915061395d826138f6565b604082019050919050565b6000602082019050818103600083015261398181613945565b9050919050565b7f455243373231456e756d657261626c653a20676c6f62616c20696e646578206f60008201527f7574206f6620626f756e64730000000000000000000000000000000000000000602082015250565b60006139e4602c83612a3f565b91506139ef82613988565b604082019050919050565b60006020820190508181036000830152613a13816139d7565b9050919050565b7f4552433732313a20696e76616c696420746f6b656e2049440000000000000000600082015250565b6000613a50601883612a3f565b9150613a5b82613a1a565b602082019050919050565b60006020820190508181036000830152613a7f81613a43565b9050919050565b7f4552433732313a2061646472657373207a65726f206973206e6f74206120766160008201527f6c6964206f776e65720000000000000000000000000000000000000000000000602082015250565b6000613ae2602983612a3f565b9150613aed82613a86565b604082019050919050565b60006020820190508181036000830152613b1181613ad5565b9050919050565b600081905092915050565b6000613b2e82612a34565b613b388185613b18565b9350613b48818560208601612a50565b80840191505092915050565b6000613b608285613b23565b9150613b6c8284613b23565b91508190509392505050565b7f4f776e61626c653a206e6577206f776e657220697320746865207a65726f206160008201527f6464726573730000000000000000000000000000000000000000000000000000602082015250565b6000613bd4602683612a3f565b9150613bdf82613b78565b604082019050919050565b60006020820190508181036000830152613c0381613bc7565b9050919050565b7f4552433732313a207472616e736665722066726f6d20696e636f72726563742060008201527f6f776e6572000000000000000000000000000000000000000000000000000000602082015250565b6000613c66602583612a3f565b9150613c7182613c0a565b604082019050919050565b60006020820190508181036000830152613c9581613c59565b9050919050565b7f4552433732313a207472616e7366657220746f20746865207a65726f2061646460008201527f7265737300000000000000000000000000000000000000000000000000000000602082015250565b6000613cf8602483612a3f565b9150613d0382613c9c565b604082019050919050565b60006020820190508181036000830152613d2781613ceb565b9050919050565b7f4f776e61626c653a2063616c6c6572206973206e6f7420746865206f776e6572600082015250565b6000613d64602083612a3f565b9150613d6f82613d2e565b602082019050919050565b60006020820190508181036000830152613d9381613d57565b9050919050565b7f4552433732313a206d696e7420746f20746865207a65726f2061646472657373600082015250565b6000613dd0602083612a3f565b9150613ddb82613d9a565b602082019050919050565b60006020820190508181036000830152613dff81613dc3565b9050919050565b7f4552433732313a20746f6b656e20616c7265616479206d696e74656400000000600082015250565b6000613e3c601c83612a3f565b9150613e4782613e06565b602082019050919050565b60006020820190508181036000830152613e6b81613e2f565b9050919050565b7f4552433732313a20617070726f766520746f2063616c6c657200000000000000600082015250565b6000613ea8601983612a3f565b9150613eb382613e72565b602082019050919050565b60006020820190508181036000830152613ed781613e9b565b9050919050565b7f4552433732313a207472616e7366657220746f206e6f6e20455243373231526560008201527f63656976657220696d706c656d656e7465720000000000000000000000000000602082015250565b6000613f3a603283612a3f565b9150613f4582613ede565b604082019050919050565b60006020820190508181036000830152613f6981613f2d565b9050919050565b7f4e487b7100000000000000000000000000000000000000000000000000000000600052601260045260246000fd5b7f455243373231456e756d657261626c653a20636f6e736563757469766520747260008201527f616e7366657273206e6f7420737570706f727465640000000000000000000000602082015250565b6000613ffb603583612a3f565b915061400682613f9f565b604082019050919050565b6000602082019050818103600083015261402a81613fee565b9050919050565b600081519050919050565b600082825260208201905092915050565b600061405882614031565b614062818561403c565b9350614072818560208601612a50565b61407b81612a7a565b840191505092915050565b600060808201905061409b6000830187612b7b565b6140a86020830186612b7b565b6140b56040830185612de6565b81810360608301526140c7818461404d565b905095945050505050565b6000815190506140e1816129a5565b92915050565b6000602082840312156140fd576140fc61296f565b5b600061410b848285016140d2565b91505092915050565b600061411f82612ae6565b915061412a83612ae6565b92508282039050818111156141425761414161356f565b5b92915050565b7f4e487b7100000000000000000000000000000000000000000000000000000000600052603160045260246000fdfea264697066735822122003f3f12f840aaeab0027c11e56e095112c02d8e1f0c32108497965550a65310164736f6c63430008130033",
  "linkReferences": {},
  "deployedLinkReferences": {}
}