{
  "_format": "hh-sol-artifact-1",
  "contractName": "FlyconomyAttractions",
  "sourceName": "contracts/FlyconomyAttractions.sol",
  "abi": [
    {
      "inputs": [],
      "stateMutability": "nonpayable",
      "type": "constructor"
    },
    {
      "anonymous": false,
      "inputs": [
        {
          "indexed": true,
          "internalType": "address",
          "name": "owner",
          "type": "address"
        },
        {
          "indexed": true,
          "internalType": "address",
          "name": "approved",
          "type": "address"
        },
        {
          "indexed": true,
          "internalType": "uint256",
          "name": "tokenId",
          "type": "uint256"
        }
      ],
      "name": "Approval",
      "type": "event"
    },
    {
      "anonymous": false,
      "inputs": [
        {
          "indexed": true,
          "internalType": "address",
          "name": "owner",
          "type": "address"
        },
        {
          "indexed": true,
          "internalType": "address",
          "name": "operator",
          "type": "address"
        },
        {
          "indexed": false,
          "internalType": "bool",
          "name": "approved",
          "type": "bool"
        }
      ],
      "name": "ApprovalForAll",
      "type": "event"
    },
    {
      "anonymous": false,
      "inputs": [
        {
          "indexed": true,
          "internalType": "address",
          "name": "from",
          "type": "address"
        },
        {
          "indexed": true,
          "internalType": "address",
          "name": "to",
          "type": "address"
        },
        {
          "indexed": true,
          "internalType": "uint256",
          "name": "tokenId",
          "type": "uint256"
        }
      ],
      "name": "Transfer",
      "type": "event"
    },
    {
      "inputs": [
        {
          "internalType": "address",
          "name": "to",
          "type": "address"
        },
        {
          "internalType": "uint256",
          "name": "tokenId",
          "type": "uint256"
        }
      ],
      "name": "approve",
      "outputs": [],
      "stateMutability": "nonpayable",
      "type": "function"
    },
    {
      "inputs": [
        {
          "internalType": "uint256",
          "name": "",
          "type": "uint256"
        }
      ],
      "name": "attractions",
      "outputs": [
        {
          "internalType": "uint256",
          "name": "id",
          "type": "uint256"
        },
        {
          "internalType": "int32",
          "name": "lat",
          "type": "int32"
        },
        {
          "internalType": "int32",
          "name": "lon",
          "type": "int32"
        },
        {
          "internalType": "string",
          "name": "name",
          "type": "string"
        },
        {
          "internalType": "string",
          "name": "description",
          "type": "string"
        }
      ],
      "stateMutability": "view",
      "type": "function"
    },
    {
      "inputs": [
        {
          "internalType": "address",
          "name": "owner",
          "type": "address"
        }
      ],
      "name": "balanceOf",
      "outputs": [
        {
          "internalType": "uint256",
          "name": "",
          "type": "uint256"
        }
      ],
      "stateMutability": "view",
      "type": "function"
    },
    {
      "inputs": [],
      "name": "getAllLocations",
      "outputs": [
        {
          "internalType": "uint256[]",
          "name": "",
          "type": "uint256[]"
        },
        {
          "internalType": "int32[]",
          "name": "",
          "type": "int32[]"
        },
        {
          "internalType": "int32[]",
          "name": "",
          "type": "int32[]"
        }
      ],
      "stateMutability": "view",
      "type": "function"
    },
    {
      "inputs": [
        {
          "internalType": "uint256",
          "name": "tokenId",
          "type": "uint256"
        }
      ],
      "name": "getApproved",
      "outputs": [
        {
          "internalType": "address",
          "name": "",
          "type": "address"
        }
      ],
      "stateMutability": "view",
      "type": "function"
    },
    {
      "inputs": [
        {
          "internalType": "uint256",
          "name": "id",
          "type": "uint256"
        }
      ],
      "name": "getDescription",
      "outputs": [
        {
          "internalType": "string",
          "name": "",
          "type": "string"
        }
      ],
      "stateMutability": "view",
      "type": "function"
    },
    {
      "inputs": [
        {
          "internalType": "uint256",
          "name": "id",
          "type": "uint256"
        }
      ],
      "name": "getLocation",
      "outputs": [
        {
          "internalType": "int32",
          "name": "",
          "type": "int32"
        },
        {
          "internalType": "int32",
          "name": "",
          "type": "int32"
        }
      ],
      "stateMutability": "view",
      "type": "function"
    },
    {
      "inputs": [
        {
          "internalType": "uint256",
          "name": "id",
          "type": "uint256"
        }
      ],
      "name": "getName",
      "outputs": [
        {
          "internalType": "string",
          "name": "",
          "type": "string"
        }
      ],
      "stateMutability": "view",
      "type": "function"
    },
    {
      "inputs": [
        {
          "internalType": "address",
          "name": "owner",
          "type": "address"
        },
        {
          "internalType": "address",
          "name": "operator",
          "type": "address"
        }
      ],
      "name": "isApprovedForAll",
      "outputs": [
        {
          "internalType": "bool",
          "name": "",
          "type": "bool"
        }
      ],
      "stateMutability": "view",
      "type": "function"
    },
    {
      "inputs": [
        {
          "internalType": "address",
          "name": "to",
          "type": "address"
        },
        {
          "internalType": "string",
          "name": "name",
          "type": "string"
        },
        {
          "internalType": "string",
          "name": "description",
          "type": "string"
        },
        {
          "internalType": "int32",
          "name": "lat",
          "type": "int32"
        },
        {
          "internalType": "int32",
          "name": "lon",
          "type": "int32"
        }
      ],
      "name": "mint",
      "outputs": [],
      "stateMutability": "nonpayable",
      "type": "function"
    },
    {
      "inputs": [],
      "name": "name",
      "outputs": [
        {
          "internalType": "string",
          "name": "",
          "type": "string"
        }
      ],
      "stateMutability": "view",
      "type": "function"
    },
    {
      "inputs": [
        {
          "internalType": "uint256",
          "name": "tokenId",
          "type": "uint256"
        }
      ],
      "name": "ownerOf",
      "outputs": [
        {
          "internalType": "address",
          "name": "",
          "type": "address"
        }
      ],
      "stateMutability": "view",
      "type": "function"
    },
    {
      "inputs": [
        {
          "internalType": "address",
          "name": "from",
          "type": "address"
        },
        {
          "internalType": "address",
          "name": "to",
          "type": "address"
        },
        {
          "internalType": "uint256",
          "name": "tokenId",
          "type": "uint256"
        }
      ],
      "name": "safeTransferFrom",
      "outputs": [],
      "stateMutability": "nonpayable",
      "type": "function"
    },
    {
      "inputs": [
        {
          "internalType": "address",
          "name": "from",
          "type": "address"
        },
        {
          "internalType": "address",
          "name": "to",
          "type": "address"
        },
        {
          "internalType": "uint256",
          "name": "tokenId",
          "type": "uint256"
        },
        {
          "internalType": "bytes",
          "name": "data",
          "type": "bytes"
        }
      ],
      "name": "safeTransferFrom",
      "outputs": [],
      "stateMutability": "nonpayable",
      "type": "function"
    },
    {
      "inputs": [
        {
          "internalType": "address",
          "name": "operator",
          "type": "address"
        },
        {
          "internalType": "bool",
          "name": "approved",
          "type": "bool"
        }
      ],
      "name": "setApprovalForAll",
      "outputs": [],
      "stateMutability": "nonpayable",
      "type": "function"
    },
    {
      "inputs": [
        {
          "internalType": "uint256",
          "name": "id",
          "type": "uint256"
        },
        {
          "internalType": "string",
          "name": "description",
          "type": "string"
        }
      ],
      "name": "setDescription",
      "outputs": [],
      "stateMutability": "nonpayable",
      "type": "function"
    },
    {
      "inputs": [
        {
          "internalType": "uint256",
          "name": "id",
          "type": "uint256"
        },
        {
          "internalType": "int32",
          "name": "lat",
          "type": "int32"
        },
        {
          "internalType": "int32",
          "name": "lon",
          "type": "int32"
        }
      ],
      "name": "setLocation",
      "outputs": [],
      "stateMutability": "nonpayable",
      "type": "function"
    },
    {
      "inputs": [
        {
          "internalType": "uint256",
          "name": "id",
          "type": "uint256"
        },
        {
          "internalType": "string",
          "name": "name",
          "type": "string"
        }
      ],
      "name": "setName",
      "outputs": [],
      "stateMutability": "nonpayable",
      "type": "function"
    },
    {
      "inputs": [
        {
          "internalType": "bytes4",
          "name": "interfaceId",
          "type": "bytes4"
        }
      ],
      "name": "supportsInterface",
      "outputs": [
        {
          "internalType": "bool",
          "name": "",
          "type": "bool"
        }
      ],
      "stateMutability": "view",
      "type": "function"
    },
    {
      "inputs": [],
      "name": "symbol",
      "outputs": [
        {
          "internalType": "string",
          "name": "",
          "type": "string"
        }
      ],
      "stateMutability": "view",
      "type": "function"
    },
    {
      "inputs": [
        {
          "internalType": "uint256",
          "name": "index",
          "type": "uint256"
        }
      ],
      "name": "tokenByIndex",
      "outputs": [
        {
          "internalType": "uint256",
          "name": "",
          "type": "uint256"
        }
      ],
      "stateMutability": "view",
      "type": "function"
    },
    {
      "inputs": [
        {
          "internalType": "address",
          "name": "owner",
          "type": "address"
        },
        {
          "internalType": "uint256",
          "name": "index",
          "type": "uint256"
        }
      ],
      "name": "tokenOfOwnerByIndex",
      "outputs": [
        {
          "internalType": "uint256",
          "name": "",
          "type": "uint256"
        }
      ],
      "stateMutability": "view",
      "type": "function"
    },
    {
      "inputs": [
        {
          "internalType": "uint256",
          "name": "tokenId",
          "type": "uint256"
        }
      ],
      "name": "tokenURI",
      "outputs": [
        {
          "internalType": "string",
          "name": "",
          "type": "string"
        }
      ],
      "stateMutability": "view",
      "type": "function"
    },
    {
      "inputs": [],
      "name": "totalSupply",
      "outputs": [
        {
          "internalType": "uint256",
          "name": "",
          "type": "uint256"
        }
      ],
      "stateMutability": "view",
      "type": "function"
    },
    {
      "inputs": [
        {
          "internalType": "address",
          "name": "from",
          "type": "address"
        },
        {
          "internalType": "address",
          "name": "to",
          "type": "address"
        },
        {
          "internalType": "uint256",
          "name": "tokenId",
          "type": "uint256"
        }
      ],
      "name": "transferFrom",
      "outputs": [],
      "stateMutability": "nonpayable",
      "type": "function"
    },
    {
      "inputs": [
        {
          "internalType": "uint256",
          "name": "id",
          "type": "uint256"
        },
        {
          "internalType": "string",
          "name": "name",
          "type": "string"
        },
        {
          "internalType": "string",
          "name": "description",
          "type": "string"
        },
        {
          "internalType": "int32",
          "name": "lat",
          "type": "int32"
        },
        {
          "internalType": "int32",
          "name": "lon",
          "type": "int32"
        }
      ],
      "name": "updateToken",
      "outputs": [],
      "stateMutability": "nonpayable",
      "type": "function"
    }
  ],
  "bytecode": "0x60806040526103e8600b553480156200001757600080fd5b506040518060400160405280601581526020017f466c79636f6e6f6d792041747472616374696f6e7300000000000000000000008152506040518060400160405280600481526020017f464c59410000000000000000000000000000000000000000000000000000000081525081600090816200009591906200032a565b508060019081620000a791906200032a565b50505062000411565b600081519050919050565b7f4e487b7100000000000000000000000000000000000000000000000000000000600052604160045260246000fd5b7f4e487b7100000000000000000000000000000000000000000000000000000000600052602260045260246000fd5b600060028204905060018216806200013257607f821691505b602082108103620001485762000147620000ea565b5b50919050565b60008190508160005260206000209050919050565b60006020601f8301049050919050565b600082821b905092915050565b600060088302620001b27fffffffffffffffffffffffffffffffffffffffffffffffffffffffffffffffff8262000173565b620001be868362000173565b95508019841693508086168417925050509392505050565b6000819050919050565b6000819050919050565b60006200020b62000205620001ff84620001d6565b620001e0565b620001d6565b9050919050565b6000819050919050565b6200022783620001ea565b6200023f620002368262000212565b84845462000180565b825550505050565b600090565b6200025662000247565b620002638184846200021c565b505050565b5b818110156200028b576200027f6000826200024c565b60018101905062000269565b5050565b601f821115620002da57620002a4816200014e565b620002af8462000163565b81016020851015620002bf578190505b620002d7620002ce8562000163565b83018262000268565b50505b505050565b600082821c905092915050565b6000620002ff60001984600802620002df565b1980831691505092915050565b60006200031a8383620002ec565b9150826002028217905092915050565b6200033582620000b0565b67ffffffffffffffff811115620003515762000350620000bb565b5b6200035d825462000119565b6200036a8282856200028f565b600060209050601f831160018114620003a257600084156200038d578287015190505b6200039985826200030c565b86555062000409565b601f198416620003b2866200014e565b60005b82811015620003dc57848901518255600182019150602085019450602081019050620003b5565b86831015620003fc5784890151620003f8601f891682620002ec565b8355505b6001600288020188555050505b505050505050565b61423b80620004216000396000f3fe608060405234801561001057600080fd5b506004361061018e5760003560e01c80636b8ff574116100de578063a22cb46511610097578063cb2ed87e11610071578063cb2ed87e146104e6578063dda9bf3a14610502578063e985e9c51461051e578063fe55932a1461054e5761018e565b8063a22cb4651461047e578063b88d4fde1461049a578063c87b56dd146104b65761018e565b80636b8ff5741461037f57806370a08231146103af57806371187fd6146103df5780637f7b13931461041357806395d89b411461044457806398912eff146104625761018e565b806323b872dd1161014b57806342842e0e1161012557806342842e0e146102d35780634925ec55146102ef5780634f6ccce71461031f5780636352211e1461034f5761018e565b806323b872dd1461026b5780632a6446ca146102875780632f745c59146102a35761018e565b806301ffc9a71461019357806306fdde03146101c3578063081812fc146101e1578063095ea7b3146102115780631076e9671461022d57806318160ddd1461024d575b600080fd5b6101ad60048036038101906101a891906129d2565b61056a565b6040516101ba9190612a1a565b60405180910390f35b6101cb61057c565b6040516101d89190612ac5565b60405180910390f35b6101fb60048036038101906101f69190612b1d565b61060e565b6040516102089190612b8b565b60405180910390f35b61022b60048036038101906102269190612bd2565b610654565b005b61023561076b565b60405161024493929190612d9b565b60405180910390f35b61025561094a565b6040516102629190612df6565b60405180910390f35b61028560048036038101906102809190612e11565b610957565b005b6102a1600480360381019061029c9190612f99565b6109b7565b005b6102bd60048036038101906102b89190612bd2565b610a5b565b6040516102ca9190612df6565b60405180910390f35b6102ed60048036038101906102e89190612e11565b610b00565b005b61030960048036038101906103049190612b1d565b610b20565b6040516103169190612ac5565b60405180910390f35b61033960048036038101906103349190612b1d565b610bce565b6040516103469190612df6565b60405180910390f35b61036960048036038101906103649190612b1d565b610c3f565b6040516103769190612b8b565b60405180910390f35b61039960048036038101906103949190612b1d565b610cc5565b6040516103a69190612ac5565b60405180910390f35b6103c960048036038101906103c49190612ff5565b610d73565b6040516103d69190612df6565b60405180910390f35b6103f960048036038101906103f49190612b1d565b610e2a565b60405161040a959493929190613031565b60405180910390f35b61042d60048036038101906104289190612b1d565b610f8a565b60405161043b929190613092565b60405180910390f35b61044c610fd2565b6040516104599190612ac5565b60405180910390f35b61047c600480360381019061047791906130e7565b611064565b005b61049860048036038101906104939190613166565b611143565b005b6104b460048036038101906104af9190613247565b611159565b005b6104d060048036038101906104cb9190612b1d565b6111bb565b6040516104dd9190612ac5565b60405180910390f35b61050060048036038101906104fb91906132ca565b611223565b005b61051c6004803603810190610517919061337d565b611365565b005b61053860048036038101906105339190613430565b61146a565b6040516105459190612a1a565b60405180910390f35b61056860048036038101906105639190612f99565b6114fe565b005b6000610575826115a2565b9050919050565b60606000805461058b9061349f565b80601f01602080910402602001604051908101604052809291908181526020018280546105b79061349f565b80156106045780601f106105d957610100808354040283529160200191610604565b820191906000526020600020905b8154815290600101906020018083116105e757829003601f168201915b5050505050905090565b60006106198261161c565b6004600083815260200190815260200160002060009054906101000a900473ffffffffffffffffffffffffffffffffffffffff169050919050565b600061065f82610c3f565b90508073ffffffffffffffffffffffffffffffffffffffff168373ffffffffffffffffffffffffffffffffffffffff16036106cf576040517f08c379a00000000000000000000000000000000000000000000000000000000081526004016106c690613542565b60405180910390fd5b8073ffffffffffffffffffffffffffffffffffffffff166106ee611667565b73ffffffffffffffffffffffffffffffffffffffff16148061071d575061071c81610717611667565b61146a565b5b61075c576040517f08c379a0000000000000000000000000000000000000000000000000000000008152600401610753906135d4565b60405180910390fd5b610766838361166f565b505050565b6060806060600061077a61094a565b905060008167ffffffffffffffff81111561079857610797612e6e565b5b6040519080825280602002602001820160405280156107c65781602001602082028036833780820191505090505b50905060008267ffffffffffffffff8111156107e5576107e4612e6e565b5b6040519080825280602002602001820160405280156108135781602001602082028036833780820191505090505b50905060008367ffffffffffffffff81111561083257610831612e6e565b5b6040519080825280602002602001820160405280156108605781602001602082028036833780820191505090505b50905060005b848110156109375780848281518110610882576108816135f4565b5b602002602001018181525050600c600082815260200190815260200160002060010160009054906101000a900460030b8382815181106108c5576108c46135f4565b5b602002602001019060030b908160030b81525050600c600082815260200190815260200160002060010160049054906101000a900460030b8282815181106109105761090f6135f4565b5b602002602001019060030b908160030b81525050808061092f90613652565b915050610866565b5082828296509650965050505050909192565b6000600880549050905090565b610968610962611667565b82611728565b6109a7576040517f08c379a000000000000000000000000000000000000000000000000000000000815260040161099e9061370c565b60405180910390fd5b6109b28383836117bd565b505050565b3373ffffffffffffffffffffffffffffffffffffffff166109d783610c3f565b73ffffffffffffffffffffffffffffffffffffffff1614610a2d576040517f08c379a0000000000000000000000000000000000000000000000000000000008152600401610a2490613778565b60405180910390fd5b6000600c6000848152602001908152602001600020905081816003019081610a559190613944565b50505050565b6000610a6683610d73565b8210610aa7576040517f08c379a0000000000000000000000000000000000000000000000000000000008152600401610a9e90613a88565b60405180910390fd5b600660008473ffffffffffffffffffffffffffffffffffffffff1673ffffffffffffffffffffffffffffffffffffffff168152602001908152602001600020600083815260200190815260200160002054905092915050565b610b1b83838360405180602001604052806000815250611159565b505050565b60606000600c60008481526020019081526020016000209050806003018054610b489061349f565b80601f0160208091040260200160405190810160405280929190818152602001828054610b749061349f565b8015610bc15780601f10610b9657610100808354040283529160200191610bc1565b820191906000526020600020905b815481529060010190602001808311610ba457829003601f168201915b5050505050915050919050565b6000610bd861094a565b8210610c19576040517f08c379a0000000000000000000000000000000000000000000000000000000008152600401610c1090613b1a565b60405180910390fd5b60088281548110610c2d57610c2c6135f4565b5b90600052602060002001549050919050565b600080610c4b83611ab6565b9050600073ffffffffffffffffffffffffffffffffffffffff168173ffffffffffffffffffffffffffffffffffffffff1603610cbc576040517f08c379a0000000000000000000000000000000000000000000000000000000008152600401610cb390613b86565b60405180910390fd5b80915050919050565b60606000600c60008481526020019081526020016000209050806002018054610ced9061349f565b80601f0160208091040260200160405190810160405280929190818152602001828054610d199061349f565b8015610d665780601f10610d3b57610100808354040283529160200191610d66565b820191906000526020600020905b815481529060010190602001808311610d4957829003601f168201915b5050505050915050919050565b60008073ffffffffffffffffffffffffffffffffffffffff168273ffffffffffffffffffffffffffffffffffffffff1603610de3576040517f08c379a0000000000000000000000000000000000000000000000000000000008152600401610dda90613c18565b60405180910390fd5b600360008373ffffffffffffffffffffffffffffffffffffffff1673ffffffffffffffffffffffffffffffffffffffff168152602001908152602001600020549050919050565b600c6020528060005260406000206000915090508060000154908060010160009054906101000a900460030b908060010160049054906101000a900460030b90806002018054610e799061349f565b80601f0160208091040260200160405190810160405280929190818152602001828054610ea59061349f565b8015610ef25780601f10610ec757610100808354040283529160200191610ef2565b820191906000526020600020905b815481529060010190602001808311610ed557829003601f168201915b505050505090806003018054610f079061349f565b80601f0160208091040260200160405190810160405280929190818152602001828054610f339061349f565b8015610f805780601f10610f5557610100808354040283529160200191610f80565b820191906000526020600020905b815481529060010190602001808311610f6357829003601f168201915b5050505050905085565b6000806000600c600085815260200190815260200160002090508060010160009054906101000a900460030b8160010160049054906101000a900460030b9250925050915091565b606060018054610fe19061349f565b80601f016020809104026020016040519081016040528092919081815260200182805461100d9061349f565b801561105a5780601f1061102f5761010080835404028352916020019161105a565b820191906000526020600020905b81548152906001019060200180831161103d57829003601f168201915b5050505050905090565b3373ffffffffffffffffffffffffffffffffffffffff1661108484610c3f565b73ffffffffffffffffffffffffffffffffffffffff16146110da576040517f08c379a00000000000000000000000000000000000000000000000000000000081526004016110d190613778565b60405180910390fd5b6000600c60008581526020019081526020016000209050828160010160006101000a81548163ffffffff021916908360030b63ffffffff160217905550818160010160046101000a81548163ffffffff021916908360030b63ffffffff16021790555050505050565b61115561114e611667565b8383611af3565b5050565b61116a611164611667565b83611728565b6111a9576040517f08c379a00000000000000000000000000000000000000000000000000000000081526004016111a09061370c565b60405180910390fd5b6111b584848484611c5f565b50505050565b60606111c68261161c565b60006111d0611cbb565b905060008151116111f0576040518060200160405280600081525061121b565b806111fa84611cd2565b60405160200161120b929190613c74565b6040516020818303038152906040525b915050919050565b600061122f600a611da0565b9050600b54811115611276576040517f08c379a000000000000000000000000000000000000000000000000000000000815260040161126d90613ce4565b60405180910390fd5b611280600a611dae565b60006040518060a001604052808381526020018560030b81526020018460030b815260200187815260200186815250905080600c60008481526020019081526020016000206000820151816000015560208201518160010160006101000a81548163ffffffff021916908360030b63ffffffff16021790555060408201518160010160046101000a81548163ffffffff021916908360030b63ffffffff16021790555060608201518160020190816113389190613944565b50608082015181600301908161134e9190613944565b5090505061135c8783611dc4565b50505050505050565b3373ffffffffffffffffffffffffffffffffffffffff1661138586610c3f565b73ffffffffffffffffffffffffffffffffffffffff16146113db576040517f08c379a00000000000000000000000000000000000000000000000000000000081526004016113d290613778565b60405180910390fd5b6000600c60008781526020019081526020016000209050848160020190816114039190613944565b50838160030190816114159190613944565b50828160010160006101000a81548163ffffffff021916908360030b63ffffffff160217905550818160010160046101000a81548163ffffffff021916908360030b63ffffffff160217905550505050505050565b6000600560008473ffffffffffffffffffffffffffffffffffffffff1673ffffffffffffffffffffffffffffffffffffffff16815260200190815260200160002060008373ffffffffffffffffffffffffffffffffffffffff1673ffffffffffffffffffffffffffffffffffffffff16815260200190815260200160002060009054906101000a900460ff16905092915050565b3373ffffffffffffffffffffffffffffffffffffffff1661151e83610c3f565b73ffffffffffffffffffffffffffffffffffffffff1614611574576040517f08c379a000000000000000000000000000000000000000000000000000000000815260040161156b90613778565b60405180910390fd5b6000600c600084815260200190815260200160002090508181600201908161159c9190613944565b50505050565b60007f780e9d63000000000000000000000000000000000000000000000000000000007bffffffffffffffffffffffffffffffffffffffffffffffffffffffff1916827bffffffffffffffffffffffffffffffffffffffffffffffffffffffff19161480611615575061161482611de2565b5b9050919050565b61162581611ec4565b611664576040517f08c379a000000000000000000000000000000000000000000000000000000000815260040161165b90613b86565b60405180910390fd5b50565b600033905090565b816004600083815260200190815260200160002060006101000a81548173ffffffffffffffffffffffffffffffffffffffff021916908373ffffffffffffffffffffffffffffffffffffffff160217905550808273ffffffffffffffffffffffffffffffffffffffff166116e283610c3f565b73ffffffffffffffffffffffffffffffffffffffff167f8c5be1e5ebec7d5bd14f71427d1e84f3dd0314c0f7b2291e5b200ac8c7c3b92560405160405180910390a45050565b60008061173483610c3f565b90508073ffffffffffffffffffffffffffffffffffffffff168473ffffffffffffffffffffffffffffffffffffffff1614806117765750611775818561146a565b5b806117b457508373ffffffffffffffffffffffffffffffffffffffff1661179c8461060e565b73ffffffffffffffffffffffffffffffffffffffff16145b91505092915050565b8273ffffffffffffffffffffffffffffffffffffffff166117dd82610c3f565b73ffffffffffffffffffffffffffffffffffffffff1614611833576040517f08c379a000000000000000000000000000000000000000000000000000000000815260040161182a90613d76565b60405180910390fd5b600073ffffffffffffffffffffffffffffffffffffffff168273ffffffffffffffffffffffffffffffffffffffff16036118a2576040517f08c379a000000000000000000000000000000000000000000000000000000000815260040161189990613e08565b60405180910390fd5b6118af8383836001611f05565b8273ffffffffffffffffffffffffffffffffffffffff166118cf82610c3f565b73ffffffffffffffffffffffffffffffffffffffff1614611925576040517f08c379a000000000000000000000000000000000000000000000000000000000815260040161191c90613d76565b60405180910390fd5b6004600082815260200190815260200160002060006101000a81549073ffffffffffffffffffffffffffffffffffffffff02191690556001600360008573ffffffffffffffffffffffffffffffffffffffff1673ffffffffffffffffffffffffffffffffffffffff168152602001908152602001600020600082825403925050819055506001600360008473ffffffffffffffffffffffffffffffffffffffff1673ffffffffffffffffffffffffffffffffffffffff16815260200190815260200160002060008282540192505081905550816002600083815260200190815260200160002060006101000a81548173ffffffffffffffffffffffffffffffffffffffff021916908373ffffffffffffffffffffffffffffffffffffffff160217905550808273ffffffffffffffffffffffffffffffffffffffff168473ffffffffffffffffffffffffffffffffffffffff167fddf252ad1be2c89b69c2b068fc378daa952ba7f163c4a11628f55a4df523b3ef60405160405180910390a4611ab18383836001611f17565b505050565b60006002600083815260200190815260200160002060009054906101000a900473ffffffffffffffffffffffffffffffffffffffff169050919050565b8173ffffffffffffffffffffffffffffffffffffffff168373ffffffffffffffffffffffffffffffffffffffff1603611b61576040517f08c379a0000000000000000000000000000000000000000000000000000000008152600401611b5890613e74565b60405180910390fd5b80600560008573ffffffffffffffffffffffffffffffffffffffff1673ffffffffffffffffffffffffffffffffffffffff16815260200190815260200160002060008473ffffffffffffffffffffffffffffffffffffffff1673ffffffffffffffffffffffffffffffffffffffff16815260200190815260200160002060006101000a81548160ff0219169083151502179055508173ffffffffffffffffffffffffffffffffffffffff168373ffffffffffffffffffffffffffffffffffffffff167f17307eab39ab6107e8899845ad3d59bd9653f200f220920489ca2b5937696c3183604051611c529190612a1a565b60405180910390a3505050565b611c6a8484846117bd565b611c7684848484611f1d565b611cb5576040517f08c379a0000000000000000000000000000000000000000000000000000000008152600401611cac90613f06565b60405180910390fd5b50505050565b606060405180602001604052806000815250905090565b606060006001611ce1846120a4565b01905060008167ffffffffffffffff811115611d0057611cff612e6e565b5b6040519080825280601f01601f191660200182016040528015611d325781602001600182028036833780820191505090505b509050600082602001820190505b600115611d95578080600190039150507f3031323334353637383961626364656600000000000000000000000000000000600a86061a8153600a8581611d8957611d88613f26565b5b04945060008503611d40575b819350505050919050565b600081600001549050919050565b6001816000016000828254019250508190555050565b611dde8282604051806020016040528060008152506121f7565b5050565b60007f80ac58cd000000000000000000000000000000000000000000000000000000007bffffffffffffffffffffffffffffffffffffffffffffffffffffffff1916827bffffffffffffffffffffffffffffffffffffffffffffffffffffffff19161480611ead57507f5b5e139f000000000000000000000000000000000000000000000000000000007bffffffffffffffffffffffffffffffffffffffffffffffffffffffff1916827bffffffffffffffffffffffffffffffffffffffffffffffffffffffff1916145b80611ebd5750611ebc82612252565b5b9050919050565b60008073ffffffffffffffffffffffffffffffffffffffff16611ee683611ab6565b73ffffffffffffffffffffffffffffffffffffffff1614159050919050565b611f11848484846122bc565b50505050565b50505050565b6000611f3e8473ffffffffffffffffffffffffffffffffffffffff1661241a565b15612097578373ffffffffffffffffffffffffffffffffffffffff1663150b7a02611f67611667565b8786866040518563ffffffff1660e01b8152600401611f899493929190613faa565b6020604051808303816000875af1925050508015611fc557506040513d601f19601f82011682018060405250810190611fc2919061400b565b60015b612047573d8060008114611ff5576040519150601f19603f3d011682016040523d82523d6000602084013e611ffa565b606091505b50600081510361203f576040517f08c379a000000000000000000000000000000000000000000000000000000000815260040161203690613f06565b60405180910390fd5b805181602001fd5b63150b7a0260e01b7bffffffffffffffffffffffffffffffffffffffffffffffffffffffff1916817bffffffffffffffffffffffffffffffffffffffffffffffffffffffff19161491505061209c565b600190505b949350505050565b600080600090507a184f03e93ff9f4daa797ed6e38ed64bf6a1f0100000000000000008310612102577a184f03e93ff9f4daa797ed6e38ed64bf6a1f01000000000000000083816120f8576120f7613f26565b5b0492506040810190505b6d04ee2d6d415b85acef8100000000831061213f576d04ee2d6d415b85acef8100000000838161213557612134613f26565b5b0492506020810190505b662386f26fc10000831061216e57662386f26fc10000838161216457612163613f26565b5b0492506010810190505b6305f5e1008310612197576305f5e100838161218d5761218c613f26565b5b0492506008810190505b61271083106121bc5761271083816121b2576121b1613f26565b5b0492506004810190505b606483106121df57606483816121d5576121d4613f26565b5b0492506002810190505b600a83106121ee576001810190505b80915050919050565b612201838361243d565b61220e6000848484611f1d565b61224d576040517f08c379a000000000000000000000000000000000000000000000000000000000815260040161224490613f06565b60405180910390fd5b505050565b60007f01ffc9a7000000000000000000000000000000000000000000000000000000007bffffffffffffffffffffffffffffffffffffffffffffffffffffffff1916827bffffffffffffffffffffffffffffffffffffffffffffffffffffffff1916149050919050565b6122c88484848461265a565b600181111561230c576040517f08c379a0000000000000000000000000000000000000000000000000000000008152600401612303906140aa565b60405180910390fd5b6000829050600073ffffffffffffffffffffffffffffffffffffffff168573ffffffffffffffffffffffffffffffffffffffff16036123535761234e81612660565b612392565b8373ffffffffffffffffffffffffffffffffffffffff168573ffffffffffffffffffffffffffffffffffffffff16146123915761239085826126a9565b5b5b600073ffffffffffffffffffffffffffffffffffffffff168473ffffffffffffffffffffffffffffffffffffffff16036123d4576123cf81612816565b612413565b8473ffffffffffffffffffffffffffffffffffffffff168473ffffffffffffffffffffffffffffffffffffffff16146124125761241184826128e7565b5b5b5050505050565b6000808273ffffffffffffffffffffffffffffffffffffffff163b119050919050565b600073ffffffffffffffffffffffffffffffffffffffff168273ffffffffffffffffffffffffffffffffffffffff16036124ac576040517f08c379a00000000000000000000000000000000000000000000000000000000081526004016124a390614116565b60405180910390fd5b6124b581611ec4565b156124f5576040517f08c379a00000000000000000000000000000000000000000000000000000000081526004016124ec90614182565b60405180910390fd5b612503600083836001611f05565b61250c81611ec4565b1561254c576040517f08c379a000000000000000000000000000000000000000000000000000000000815260040161254390614182565b60405180910390fd5b6001600360008473ffffffffffffffffffffffffffffffffffffffff1673ffffffffffffffffffffffffffffffffffffffff16815260200190815260200160002060008282540192505081905550816002600083815260200190815260200160002060006101000a81548173ffffffffffffffffffffffffffffffffffffffff021916908373ffffffffffffffffffffffffffffffffffffffff160217905550808273ffffffffffffffffffffffffffffffffffffffff16600073ffffffffffffffffffffffffffffffffffffffff167fddf252ad1be2c89b69c2b068fc378daa952ba7f163c4a11628f55a4df523b3ef60405160405180910390a4612656600083836001611f17565b5050565b50505050565b6008805490506009600083815260200190815260200160002081905550600881908060018154018082558091505060019003906000526020600020016000909190919091505550565b600060016126b684610d73565b6126c091906141a2565b90506000600760008481526020019081526020016000205490508181146127a5576000600660008673ffffffffffffffffffffffffffffffffffffffff1673ffffffffffffffffffffffffffffffffffffffff168152602001908152602001600020600084815260200190815260200160002054905080600660008773ffffffffffffffffffffffffffffffffffffffff1673ffffffffffffffffffffffffffffffffffffffff168152602001908152602001600020600084815260200190815260200160002081905550816007600083815260200190815260200160002081905550505b6007600084815260200190815260200160002060009055600660008573ffffffffffffffffffffffffffffffffffffffff1673ffffffffffffffffffffffffffffffffffffffff16815260200190815260200160002060008381526020019081526020016000206000905550505050565b6000600160088054905061282a91906141a2565b905060006009600084815260200190815260200160002054905060006008838154811061285a576128596135f4565b5b90600052602060002001549050806008838154811061287c5761287b6135f4565b5b9060005260206000200181905550816009600083815260200190815260200160002081905550600960008581526020019081526020016000206000905560088054806128cb576128ca6141d6565b5b6001900381819060005260206000200160009055905550505050565b60006128f283610d73565b905081600660008573ffffffffffffffffffffffffffffffffffffffff1673ffffffffffffffffffffffffffffffffffffffff168152602001908152602001600020600083815260200190815260200160002081905550806007600084815260200190815260200160002081905550505050565b6000604051905090565b600080fd5b600080fd5b60007fffffffff0000000000000000000000000000000000000000000000000000000082169050919050565b6129af8161297a565b81146129ba57600080fd5b50565b6000813590506129cc816129a6565b92915050565b6000602082840312156129e8576129e7612970565b5b60006129f6848285016129bd565b91505092915050565b60008115159050919050565b612a14816129ff565b82525050565b6000602082019050612a2f6000830184612a0b565b92915050565b600081519050919050565b600082825260208201905092915050565b60005b83811015612a6f578082015181840152602081019050612a54565b60008484015250505050565b6000601f19601f8301169050919050565b6000612a9782612a35565b612aa18185612a40565b9350612ab1818560208601612a51565b612aba81612a7b565b840191505092915050565b60006020820190508181036000830152612adf8184612a8c565b905092915050565b6000819050919050565b612afa81612ae7565b8114612b0557600080fd5b50565b600081359050612b1781612af1565b92915050565b600060208284031215612b3357612b32612970565b5b6000612b4184828501612b08565b91505092915050565b600073ffffffffffffffffffffffffffffffffffffffff82169050919050565b6000612b7582612b4a565b9050919050565b612b8581612b6a565b82525050565b6000602082019050612ba06000830184612b7c565b92915050565b612baf81612b6a565b8114612bba57600080fd5b50565b600081359050612bcc81612ba6565b92915050565b60008060408385031215612be957612be8612970565b5b6000612bf785828601612bbd565b9250506020612c0885828601612b08565b9150509250929050565b600081519050919050565b600082825260208201905092915050565b6000819050602082019050919050565b612c4781612ae7565b82525050565b6000612c598383612c3e565b60208301905092915050565b6000602082019050919050565b6000612c7d82612c12565b612c878185612c1d565b9350612c9283612c2e565b8060005b83811015612cc3578151612caa8882612c4d565b9750612cb583612c65565b925050600181019050612c96565b5085935050505092915050565b600081519050919050565b600082825260208201905092915050565b6000819050602082019050919050565b60008160030b9050919050565b612d1281612cfc565b82525050565b6000612d248383612d09565b60208301905092915050565b6000602082019050919050565b6000612d4882612cd0565b612d528185612cdb565b9350612d5d83612cec565b8060005b83811015612d8e578151612d758882612d18565b9750612d8083612d30565b925050600181019050612d61565b5085935050505092915050565b60006060820190508181036000830152612db58186612c72565b90508181036020830152612dc98185612d3d565b90508181036040830152612ddd8184612d3d565b9050949350505050565b612df081612ae7565b82525050565b6000602082019050612e0b6000830184612de7565b92915050565b600080600060608486031215612e2a57612e29612970565b5b6000612e3886828701612bbd565b9350506020612e4986828701612bbd565b9250506040612e5a86828701612b08565b9150509250925092565b600080fd5b600080fd5b7f4e487b7100000000000000000000000000000000000000000000000000000000600052604160045260246000fd5b612ea682612a7b565b810181811067ffffffffffffffff82111715612ec557612ec4612e6e565b5b80604052505050565b6000612ed8612966565b9050612ee48282612e9d565b919050565b600067ffffffffffffffff821115612f0457612f03612e6e565b5b612f0d82612a7b565b9050602081019050919050565b82818337600083830152505050565b6000612f3c612f3784612ee9565b612ece565b905082815260208101848484011115612f5857612f57612e69565b5b612f63848285612f1a565b509392505050565b600082601f830112612f8057612f7f612e64565b5b8135612f90848260208601612f29565b91505092915050565b60008060408385031215612fb057612faf612970565b5b6000612fbe85828601612b08565b925050602083013567ffffffffffffffff811115612fdf57612fde612975565b5b612feb85828601612f6b565b9150509250929050565b60006020828403121561300b5761300a612970565b5b600061301984828501612bbd565b91505092915050565b61302b81612cfc565b82525050565b600060a0820190506130466000830188612de7565b6130536020830187613022565b6130606040830186613022565b81810360608301526130728185612a8c565b905081810360808301526130868184612a8c565b90509695505050505050565b60006040820190506130a76000830185613022565b6130b46020830184613022565b9392505050565b6130c481612cfc565b81146130cf57600080fd5b50565b6000813590506130e1816130bb565b92915050565b600080600060608486031215613100576130ff612970565b5b600061310e86828701612b08565b935050602061311f868287016130d2565b9250506040613130868287016130d2565b9150509250925092565b613143816129ff565b811461314e57600080fd5b50565b6000813590506131608161313a565b92915050565b6000806040838503121561317d5761317c612970565b5b600061318b85828601612bbd565b925050602061319c85828601613151565b9150509250929050565b600067ffffffffffffffff8211156131c1576131c0612e6e565b5b6131ca82612a7b565b9050602081019050919050565b60006131ea6131e5846131a6565b612ece565b90508281526020810184848401111561320657613205612e69565b5b613211848285612f1a565b509392505050565b600082601f83011261322e5761322d612e64565b5b813561323e8482602086016131d7565b91505092915050565b6000806000806080858703121561326157613260612970565b5b600061326f87828801612bbd565b945050602061328087828801612bbd565b935050604061329187828801612b08565b925050606085013567ffffffffffffffff8111156132b2576132b1612975565b5b6132be87828801613219565b91505092959194509250565b600080600080600060a086880312156132e6576132e5612970565b5b60006132f488828901612bbd565b955050602086013567ffffffffffffffff81111561331557613314612975565b5b61332188828901612f6b565b945050604086013567ffffffffffffffff81111561334257613341612975565b5b61334e88828901612f6b565b935050606061335f888289016130d2565b9250506080613370888289016130d2565b9150509295509295909350565b600080600080600060a0868803121561339957613398612970565b5b60006133a788828901612b08565b955050602086013567ffffffffffffffff8111156133c8576133c7612975565b5b6133d488828901612f6b565b945050604086013567ffffffffffffffff8111156133f5576133f4612975565b5b61340188828901612f6b565b9350506060613412888289016130d2565b9250506080613423888289016130d2565b9150509295509295909350565b6000806040838503121561344757613446612970565b5b600061345585828601612bbd565b925050602061346685828601612bbd565b9150509250929050565b7f4e487b7100000000000000000000000000000000000000000000000000000000600052602260045260246000fd5b600060028204905060018216806134b757607f821691505b6020821081036134ca576134c9613470565b5b50919050565b7f4552433732313a20617070726f76616c20746f2063757272656e74206f776e6560008201527f7200000000000000000000000000000000000000000000000000000000000000602082015250565b600061352c602183612a40565b9150613537826134d0565b604082019050919050565b6000602082019050818103600083015261355b8161351f565b9050919050565b7f4552433732313a20617070726f76652063616c6c6572206973206e6f7420746f60008201527f6b656e206f776e6572206f7220617070726f76656420666f7220616c6c000000602082015250565b60006135be603d83612a40565b91506135c982613562565b604082019050919050565b600060208201905081810360008301526135ed816135b1565b9050919050565b7f4e487b7100000000000000000000000000000000000000000000000000000000600052603260045260246000fd5b7f4e487b7100000000000000000000000000000000000000000000000000000000600052601160045260246000fd5b600061365d82612ae7565b91507fffffffffffffffffffffffffffffffffffffffffffffffffffffffffffffffff820361368f5761368e613623565b5b600182019050919050565b7f4552433732313a2063616c6c6572206973206e6f7420746f6b656e206f776e6560008201527f72206f7220617070726f76656400000000000000000000000000000000000000602082015250565b60006136f6602d83612a40565b91506137018261369a565b604082019050919050565b60006020820190508181036000830152613725816136e9565b9050919050565b7f596f7520646f206e6f74206f776e207468697320746f6b656e00000000000000600082015250565b6000613762601983612a40565b915061376d8261372c565b602082019050919050565b6000602082019050818103600083015261379181613755565b9050919050565b60008190508160005260206000209050919050565b60006020601f8301049050919050565b600082821b905092915050565b6000600883026137fa7fffffffffffffffffffffffffffffffffffffffffffffffffffffffffffffffff826137bd565b61380486836137bd565b95508019841693508086168417925050509392505050565b6000819050919050565b600061384161383c61383784612ae7565b61381c565b612ae7565b9050919050565b6000819050919050565b61385b83613826565b61386f61386782613848565b8484546137ca565b825550505050565b600090565b613884613877565b61388f818484613852565b505050565b5b818110156138b3576138a860008261387c565b600181019050613895565b5050565b601f8211156138f8576138c981613798565b6138d2846137ad565b810160208510156138e1578190505b6138f56138ed856137ad565b830182613894565b50505b505050565b600082821c905092915050565b600061391b600019846008026138fd565b1980831691505092915050565b6000613934838361390a565b9150826002028217905092915050565b61394d82612a35565b67ffffffffffffffff81111561396657613965612e6e565b5b613970825461349f565b61397b8282856138b7565b600060209050601f8311600181146139ae576000841561399c578287015190505b6139a68582613928565b865550613a0e565b601f1984166139bc86613798565b60005b828110156139e4578489015182556001820191506020850194506020810190506139bf565b86831015613a0157848901516139fd601f89168261390a565b8355505b6001600288020188555050505b505050505050565b7f455243373231456e756d657261626c653a206f776e657220696e646578206f7560008201527f74206f6620626f756e6473000000000000000000000000000000000000000000602082015250565b6000613a72602b83612a40565b9150613a7d82613a16565b604082019050919050565b60006020820190508181036000830152613aa181613a65565b9050919050565b7f455243373231456e756d657261626c653a20676c6f62616c20696e646578206f60008201527f7574206f6620626f756e64730000000000000000000000000000000000000000602082015250565b6000613b04602c83612a40565b9150613b0f82613aa8565b604082019050919050565b60006020820190508181036000830152613b3381613af7565b9050919050565b7f4552433732313a20696e76616c696420746f6b656e2049440000000000000000600082015250565b6000613b70601883612a40565b9150613b7b82613b3a565b602082019050919050565b60006020820190508181036000830152613b9f81613b63565b9050919050565b7f4552433732313a2061646472657373207a65726f206973206e6f74206120766160008201527f6c6964206f776e65720000000000000000000000000000000000000000000000602082015250565b6000613c02602983612a40565b9150613c0d82613ba6565b604082019050919050565b60006020820190508181036000830152613c3181613bf5565b9050919050565b600081905092915050565b6000613c4e82612a35565b613c588185613c38565b9350613c68818560208601612a51565b80840191505092915050565b6000613c808285613c43565b9150613c8c8284613c43565b91508190509392505050565b7f4d617820737570706c7920726561636865640000000000000000000000000000600082015250565b6000613cce601283612a40565b9150613cd982613c98565b602082019050919050565b60006020820190508181036000830152613cfd81613cc1565b9050919050565b7f4552433732313a207472616e736665722066726f6d20696e636f72726563742060008201527f6f776e6572000000000000000000000000000000000000000000000000000000602082015250565b6000613d60602583612a40565b9150613d6b82613d04565b604082019050919050565b60006020820190508181036000830152613d8f81613d53565b9050919050565b7f4552433732313a207472616e7366657220746f20746865207a65726f2061646460008201527f7265737300000000000000000000000000000000000000000000000000000000602082015250565b6000613df2602483612a40565b9150613dfd82613d96565b604082019050919050565b60006020820190508181036000830152613e2181613de5565b9050919050565b7f4552433732313a20617070726f766520746f2063616c6c657200000000000000600082015250565b6000613e5e601983612a40565b9150613e6982613e28565b602082019050919050565b60006020820190508181036000830152613e8d81613e51565b9050919050565b7f4552433732313a207472616e7366657220746f206e6f6e20455243373231526560008201527f63656976657220696d706c656d656e7465720000000000000000000000000000602082015250565b6000613ef0603283612a40565b9150613efb82613e94565b604082019050919050565b60006020820190508181036000830152613f1f81613ee3565b9050919050565b7f4e487b7100000000000000000000000000000000000000000000000000000000600052601260045260246000fd5b600081519050919050565b600082825260208201905092915050565b6000613f7c82613f55565b613f868185613f60565b9350613f96818560208601612a51565b613f9f81612a7b565b840191505092915050565b6000608082019050613fbf6000830187612b7c565b613fcc6020830186612b7c565b613fd96040830185612de7565b8181036060830152613feb8184613f71565b905095945050505050565b600081519050614005816129a6565b92915050565b60006020828403121561402157614020612970565b5b600061402f84828501613ff6565b91505092915050565b7f455243373231456e756d657261626c653a20636f6e736563757469766520747260008201527f616e7366657273206e6f7420737570706f727465640000000000000000000000602082015250565b6000614094603583612a40565b915061409f82614038565b604082019050919050565b600060208201905081810360008301526140c381614087565b9050919050565b7f4552433732313a206d696e7420746f20746865207a65726f2061646472657373600082015250565b6000614100602083612a40565b915061410b826140ca565b602082019050919050565b6000602082019050818103600083015261412f816140f3565b9050919050565b7f4552433732313a20746f6b656e20616c7265616479206d696e74656400000000600082015250565b600061416c601c83612a40565b915061417782614136565b602082019050919050565b6000602082019050818103600083015261419b8161415f565b9050919050565b60006141ad82612ae7565b91506141b883612ae7565b92508282039050818111156141d0576141cf613623565b5b92915050565b7f4e487b7100000000000000000000000000000000000000000000000000000000600052603160045260246000fdfea2646970667358221220b745de27cd9329c1186f08a01d43d8d8432acb7fa5919b44b688dfb27fe4250964736f6c63430008130033",
  "linkReferences": {},
  "deployedLinkReferences": {}
}